:020000040800F2
:10000000E8130024A5030008F15B0008E956000886
:10001000ED5B000899130008697A000800000000F1
:10002000000000000000000000000000E5020008E1
:100030009F13000800000000410300085D5F0008F6
:10004000C3030008C3030008C3030008C303000878
:10005000C3030008C3030008C3030008C303000868
:10006000C3030008C3030008C3030008C303000858
:10007000C3030008C3030008C3030008C303000848
:10008000C3030008C3030008C3030008C303000838
:10009000C3030008C3030008C3030008C303000828
:1000A000C3030008C3030008C3030008C303000818
:1000B000C3030008C3030008C3030008C303000808
:1000C000C3030008C3030008C3030008C3030008F8
:1000D000C303000871770008C3030008C3030008C6
:1000E000C3030008C303000800000000C3030008A6
:1000F0003D610008C3030008C3030008C3030008F0
:10010000C3030008C3030008C3030008C3030008B7
:10011000C3030008C3030008C3030008C3030008A7
:10012000C3030008C3030008C3030008C303000897
:10013000C3030008C3030008C3030008C303000887
:1001400000000000000000000000000000000000AF
:10015000C3030008C3030008C3030008C303000867
:10016000C3030008C3030008C3030008C303000857
:10017000C3030008C3030008C30300080000000015
:10018000C3030008C3030008C3030008C303000837
:10019000C3030008C3030008C3030008C303000827
:1001A000C3030008C3030008C303000800000000E5
:1001B000C3030008C3030008C3030008C303000807
:1001C000C3030008C3030008000000000000000093
:1001D0000000000000000000C30300080000000051
:1001E000000000000000000000000000000000000F
:1001F0000000000000000000C3030008C303000863
:10020000C3030008C303000800000000C303000884
:10021000C3030008C3030008C3030008C3030008A6
:10022000C303000800000000C30300080000000032
:10023000C3030008C303000800000000C303000854
:10024000C3030008C3030008C3030008C303000876
:10025000C3030008C3030008C3030008C303000866
:10026000C3030008C3030008C3030008C303000856
:10027000C3030008C3030008C30300080000000014
:10028000C3030008C3030008C3030008C303000836
:1002900000000000C3030008C303000800000000C2
:1002A00000000000C3030008C3030008C3030008E4
:1002B000C3030008C3030008C3030008C303000806
:1002C000C3030008C3030008C3030008DFF810D00D
:1002D00000F0D8FA00480047858E0008AFF3008090
:1002E000E81300242C4B19680868B0E8F04F80F33D
:1002F0000988BFF36F8F4FF0000080F311887047BB
:100300000000000008480068006880F308884FF08B
:10031000000080F3148862B661B6BFF34F8FBFF35D
:100320006F8F00DF00BF00BF08ED00E0DFF80C00BA
:10033000016841F470010160704700BF88ED00E082
:10034000EFF30980BFF36F8F134B1A681EF0100F85
:1003500008BF20ED108A20E9F04F106009B44FF07B
:10036000500080F31188BFF34F8FBFF36F8F0AF0F7
:1003700033FC4FF0000080F3118809BC196808684D
:10038000B0E8F04F1EF0100F08BFB0EC108A80F3F9
:100390000988BFF36F8F70474C000024EFF305808E
:1003A00070470000074880470748804707480047D4
:1003B000FEE7FEE7FEE7FEE7FEE7FEE7FEE7FEE715
:1003C000FEE7FEE7A913000831600008CD0200082F
:1003D0002DE9F05F0546002092469B46884606467A
:1003E000814640241BE0284641464746224600F00D
:1003F00069F853465A46C01A914110D3114618461F
:10040000224600F050F82D1A67EB01084F462246AD
:100410000120002100F047F817EB00094E41201E93
:10042000A4F10104DFDC484631462A464346BDE8D4
:10043000F09F40EA01039B0703D009E008C9121F9F
:1004400008C0042AFAD203E011F8013B00F8013B8E
:10045000521EF9D27047D2B201E000F8012B491EBA
:10046000FBD270470022F6E710B513460A46044651
:100470001946FFF7F0FF204610BD30B50B46014688
:1004800000202022012409E021FA02F59D4205D333
:1004900003FA02F5491B04FA02F52844151EA2F1DD
:1004A0000102F1DC30BD202A04DB203A00FA02F11F
:1004B000002070479140C2F1200320FA03F3194352
:1004C00090407047202A04DB203A21FA02F00021F4
:1004D000704721FA02F3D040C2F120029140084354
:1004E000194670472DE9FE4F804681EA0300C00F90
:1004F0000C46009021F0004123F00045B8EB0200CB
:10050000A94105D24046214690461C460B4602466C
:1005100023F00040104347D0270DC7F30A00C3F370
:100520000A510290401A019040286BDAC3F313007D
:1005300040F4801B0098924620B10023D2EB030ABE
:1005400063EB0B0B01985946C0F140025046FFF790
:10055000AAFF06460D4650465946019A00F0A4F9F6
:1005600010EB08006141002487EA115284EAE77326
:100570001A4340D0009A62B3019A012A4FEA075207
:1005800015DC001B61EB02014FF0004202EA07524A
:10059000CDE90042001C41F5801132462B4600F0A7
:1005A000A4F903B0BDE8F08F40462146F9E7001BEF
:1005B00061EB0201001C41F5801300185B4120181B
:1005C000A2F5001747EB030140EAD570B6196D415B
:1005D00011E06D084FEA360645EAC0754FEA07524A
:1005E000001B61EB0201001C41F5801149084FEA34
:1005F00030000019514132462B4603B0BDE8F04FA0
:1006000000F064B90098012240000023D0EB020200
:1006100063EBE073009821464FEAE074B8EB00000A
:1006200061EB0401E9E783F000435BE781F00041FF
:1006300058E72DE9FE4F81EA030404F0004421F05D
:10064000004100944FF0000B23F0004350EA0104F6
:100650005ED052EA03045BD0C3F30A54C1F30A55D7
:100660002C44A4F2F3340194A0FB0254C1F313010F
:1006700041F48011C3F3130343F4801301FB0244DC
:1006800000FB034E840A970A44EA815447EA8357E1
:10069000A4FB076802958D0A05FB07854FEA932C9A
:1006A00004FB0C542705029D4FEA065847EA16370B
:1006B000B5EB08056EEB070C870E920E47EA811723
:1006C00042EA8312A7FB0201B6EB0B0164EB0004C4
:1006D0002B0D43EA0C335E1844EB1C50DA465146AE
:1006E000E7FB0201C5F313044FEA0B3343EA14534B
:1006F0004FEA0432019C43EA0603A4F10C0402947D
:10070000009CCDE900B400F0F0F803B0BDE8F08F34
:1007100000200146F9E72DE9F04D81EA030404F0D9
:10072000004B21F0004514464FF0000A23F0004131
:1007300050EA050220D054EA01021DD0C5F30A5741
:100740000246C5F31303C1F31300C1F30A5640F484
:10075000801543F48013A7EB0608101BD64608F259
:10076000FD3873EB050002D308F1010801E092188F
:100770005B41B8F1000F03DA00200146BDE8F08DBF
:1007800000204FF48011064684460EE0171B73EBE1
:10079000050705D3121B63EB050306434CEA010C66
:1007A00049084FEA300092185B4150EA0107EDD149
:1007B00052EA030012D082EA040083EA05010843EA
:1007C00005D0101BAB4106D20122002306E0002217
:1007D0004FF0004302E06FF0010253101AEB0600E5
:1007E0004CEB085110EB0A0041EB0B01BDE8F04D5A
:1007F00000F06CB870B521F0004303430CD0C1F396
:100800000A550024D5EB040564EB0403D617AD1A92
:10081000B34102DB0020014670BD201841EB0251BC
:1008200070BDC1F30A52C1F3130140F2FF3341F42A
:1008300080119A4202DA00200146704740F23343A9
:100840009A42A2F2334202DC5242FFF73BBEFFF76C
:100850002ABE000030B5041E71F1000404DB4FF025
:100860000044404264EB0101141E73F1000405DBF7
:100870001C464FF00043524263EB0403994208BF09
:10088000904230BD064C074D06E0E06840F00103A1
:1008900094E8070098471034AC42F6D3FFF71AFDEE
:1008A00058C4000888C40008202A06DBCB17203A69
:1008B00041FA02F043EAE07306E041FA02F3D04065
:1008C000C2F12002914008431946704710B5141E2A
:1008D00073F1000408DA401C41F1000192185B41F9
:1008E0001A4301D120F0010010BD2DE9F04D9246D0
:1008F0009B4611B1B1FA81F202E0B0FA80F22032E7
:100900009046FFF7D0FD04460F4640EA0A0041EA50
:100910000B0153465A46084313D0114653EA0100CF
:1009200019D0C8F140025046FFF7CCFD05460E46EF
:10093000504659464246FFF7B6FD084305D0012010
:1009400004E020463946BDE8F08D0020054346EA24
:10095000E0762C4337430A986305E40AA0EB0800CD
:100960000022FD0A44EA47540A3002D5002001461D
:10097000E9E7010510196941DDE9084500196941F8
:10098000BDE8F04DA2E700BF00F004F8012008F038
:100990008FFAF9E72DE9F04F2DED068B81B04FF07E
:1009A000FF31FE48006808F091FC4FF0FF31FC4831
:1009B000006808F08BFC9FEDFB0AB0EE408A002532
:1009C000F948807800EE100AB8EE400AF0EE408A4E
:1009D000F548007900EE100AB8EE400AB0EE409AF1
:1009E000F148877990F8078090F8089090F809A06E
:1009F00090F80AB0C67A007B4FF47A7110FB01F4CC
:100A0000BBF1010F7DD19FEDE90AC8EE800AE648EF
:100A1000407800EE100AB8EE400A30EE800ADFEDB2
:100A2000E30A80EE201AF0EE418A9FEDE00AC9EE5B
:100A3000000ADD48C07800EE100AB8EE400A30EE39
:100A4000800ADFEDDA0A80EE201AB0EE419A9FEDBF
:100A5000D81BB7EEE80A07F053F8B0EE401BD648B3
:100A6000808800EE100AB8EE400B21EE000BB7EEC6
:100A7000C00BF0EE408A9FEDCE1BB7EEC90A07F01F
:100A80003FF8B0EE401BCC48808800EE100AB8EE6C
:100A9000400B21EE000BB7EEC00BB0EE409ABCEE5F
:100AA000E80AC54880ED020ABCEEC90A80ED030AD7
:100AB00090ED020A80ED050AB8EE400B80ED0A0BBE
:100AC000B9484079BC49C86108468068C96888420D
:100AD00005D9B9488068B849C968401A04E0B648E1
:100AE000C068B5498968401A0090B348C169B348E5
:100AF00041430098B1FBF0F0AF49C861A8480068D5
:100B000000E005E208F0BAFBADA006F0AFFF6420FC
:100B100008F0CEF9F6E113E0A748C078BB280CD165
:100B20004FF0FF319E48006808F01EFB0020A249EC
:100B300088709B48006808F0A1FB642008F0B8F9B1
:100B40009D488078AA28E7D09B48C06905449F4803
:100B5000854229D30025984890ED040AB8EE400A52
:100B6000B0EE408A90ED060AB8EE400AC8EE000AE0
:100B70009FED8E0A20EE800AB0EE408AB2EE040AA3
:100B8000B4EEC08AF1EE10FA07D2B7EEC80A53EC01
:100B9000102B8FA006F06AFF06E0B7EEC80A53ECF0
:100BA000102B8DA006F062FF8348C06918B18249FE
:100BB000C86908F0EDF8804840697F4991F9011053
:100BC00008447D494861084690ED050AB8EE400B9F
:100BD00080ED0A0B90ED0A1B808800EE100AB8EE3B
:100BE000400B81EE002BB0EE42AB9FED7D1BB0EED3
:100BF0004A0B06F085FF704880ED080B90ED060A61
:100C0000B8EE400B90ED081B20EE010BBCEEC00BC4
:100C100080ED040A80686849C96888427ED26648C7
:100C200040696549C968884248D3322008F040F9D4
:100C3000614890ED030A80ED050AB8EE400B80EDA7
:100C40000A0B4078404240B25B4948700025084694
:100C500090ED040AB8EE400AB0EE408A90ED060A24
:100C6000F8EE400A88EE200ADFED500A20EE200A56
:100C7000B0EE408AB2EE040AB4EEC08AF1EE10FA89
:100C800007D2B7EEC80A53EC102B51A006F0EEFEC7
:100C900006E0B7EEC80A53EC102B4FA006F0E6FEB4
:100CA0001CB1A4F1320008F003F9002E4FD109F075
:100CB000F7FF01B0BDEC068BBDE8F08F3E48406900
:100CC0003D498968884242D8322008F0F1F83A4814
:100CD00090ED020A80ED050AB8EE400B80ED0A0B9C
:100CE0004078404240B2344948700025084690EDB3
:100CF000040AB8EE400AB0EE408A90ED060AF8EE1B
:100D0000400A88EE200ADFED290A20EE200AB0EE24
:100D1000408AB2EE040AB4EEC08A00E018E0F1EEB8
:100D200010FA07D2B7EEC80A53EC102B28A006F031
:100D30009DFE06E0B7EEC80A53EC102B26A006F085
:100D400095FE002C03D0A4F1320008F0B1F8BBE00E
:100D5000194840691849C96888426CD8322008F09F
:100D6000A7F8154890ED030A80ED050AB8EE400B90
:100D700080ED0A0B4078404240B20F494870002590
:100D8000084690ED040AB8EE400AB0EE408A90EDB5
:100D9000060AF8EE400A88EE200A25E02400002426
:100DA0001C00002400000000680F00240000C8425E
:100DB000175D74D14517DD3FD000002440420F007D
:100DC000BFAACABCB5F7B9E20D0A0000A0860100AF
:100DD0005130252E3266000051252E32660000006B
:100DE0009A999999999901405FED100A20EE200A8D
:100DF000B0EE408AB2EE040AB4EEC08AF1EE10FA08
:100E000008D2B7EEC80A53EC102BAFF23C0006F044
:100E10002DFE07E0B7EEC80A53EC102BAFF24800E6
:100E200006F024FE1CB1A4F1320008F041F8EEBB3C
:100E300009F036FF3DE7FE484069FD498968884270
:100E400042D3322008F034F8F94890ED020A80EDE0
:100E5000050AB8EE400B80ED0A0B4078404240B2E4
:100E6000F34948700025084690ED040AB8EE400AA0
:100E7000B0EE408A90ED060AF8EE400A88EE200AAD
:100E80005FED360A20EE200AB0EE408AB2EE040A88
:100E9000B4EEC08AF1EE10FA09D2B7EEC80A53ECEC
:100EA000102BAFF2D40006F0E1FD08E00CE0B7EE45
:100EB000C80A53EC102BAFF2E00006F0D7FD1CB1CE
:100EC000A4F1320007F0F4FF27B1D9480069D949ED
:100ED00009684863B8F1000F04D0D5480069D549C6
:100EE00009688863B9F1000F04D0D1480069D1497D
:100EF0000968C863BAF1000F04D0CD480069CD4934
:100F000009680864CA48C078BB287FF404AE1EE2B2
:100F1000BBF1020F7ED11FED5B0AC8EE800AC64806
:100F2000407800EE100AB8EE400A30EE800A1FED5D
:100F3000611AC0EE010ABE4890ED060AB8EE400AFA
:100F400020EE800AF0EE408A1FED680AC9EE000A22
:100F5000B948C07800EE100AB8EE400A30EE800AB8
:100F60001FED6E1AC0EE010AB14890ED060AB8EE08
:100F7000400A20EE800AB0EE409ABCEEE80A80ED0E
:100F8000020ABCEEC90A80ED030A8068A8494861DC
:100F9000A9484079C86108468068C968884205D96F
:100FA000A3488068A249C968401A04E0A048C06804
:100FB0009F498968401A00909D48C1699F484143F4
:100FC0000098B1FBF0F09A49C8619D48006808F0AC
:100FD00055F9AFF2142006F049FD642007F068FFD0
:100FE000ACE113E09248C078BB280CD14FF0FF3140
:100FF0009348006808F0B8F800208D498870904840
:10100000006808F03BF9642007F052FF88488078B8
:10101000AA2800E098E1E5D08548C06905448948E0
:1010200085422BD30025824890ED050AB8EE400A90
:10103000B0EE408A90ED060AF8EE400A88EE200AEB
:101040005FEDA60A20EE200AB0EE408AB2EE040A56
:10105000B4EEC08AF1EE10FA08D2B7EEC80A53EC2B
:10106000102BAFF2942006F001FD07E0B7EEC80A9E
:1010700053EC102BAFF2A02006F0F8FC6C48C069CE
:1010800018B16B49C86907F083FE6948406968492F
:1010900091F90110084466494861084640690861B1
:1010A00008468068C96888427ED2614840696049C4
:1010B000C968884241D3322007F0FAFE5C48C06814
:1010C0005B494861086108464078404240B2487038
:1010D0000025084690ED030AB8EE400AB0EE408ABB
:1010E00090ED060AF8EE400A88EE200A5FEDD10A7C
:1010F00020EE200AB0EE408AB2EE040AB4EEC08AB6
:10110000F1EE10FA08D2B7EEC80A53EC102BAFF28A
:10111000403006F0ABFC07E0B7EEC80A53EC102BEA
:10112000AFF24C3006F0A2FC1CB1A4F1320007F083
:10113000BFFE16B909F0B4FDBBE53D4840693C4926
:10114000896888423FD8322007F0B2FE384880686C
:1011500037494861086108464078404240B24870CB
:101160000025084690ED050AB8EE400AB0EE408A28
:1011700090ED060AF8EE400A88EE200A5FEDF50AC7
:1011800020EE200AB0EE408AB2EE040AB4EEC08A25
:10119000F1EE10FA09D2B7EEC80A53EC102BAFF2F9
:1011A000D03006F063FC08E00EE0B7EEC80A53EC5E
:1011B000102BAFF2DC3006F059FC002C03D0A4F168
:1011C000320007F075FE9BE0194840691849C9686C
:1011D000884251D8322007F06BFE1548C068144988
:1011E0004861086108464078404240B24870002596
:1011F000084690ED030AB8EE400AB0EE408A90ED42
:10120000060AF8EE400A88EE200ADFED0F0A20EE0B
:10121000200AB0EE408AB2EE040AB4EEC08AF1EEC3
:1012200010FA18D2B7EEC80A53EC102B0EE00000EB
:10123000D00000241C010024680F002440420F004D
:101240001C000024A08601000000C842AFF28040CC
:1012500006F00CFC07E0B7EEC80A53EC102BAFF217
:10126000884006F003FC1CB1A4F1320007F020FE18
:1012700016B909F015FD1CE53F4840693E498968EB
:1012800088423DD3322007F013FE3B4880683A493C
:101290004861086108464078404240B248700025E5
:1012A000084690ED020AB8EE400AB0EE408A90ED92
:1012B000060AF8EE400A88EE200A5FED1D0A20EECD
:1012C000200AB0EE408AB2EE040AB4EEC08AF1EE13
:1012D00010FA08D2B7EEC80A53EC102BAFF2105038
:1012E00006F0C4FB07E0B7EEC80A53EC102BAFF2D0
:1012F000185006F0BBFB1CB1A4F1320007F0D8FD7A
:1013000027B11D4800691D4909684863B8F1000FFD
:1013100004D019480069194909688863B9F1000FB8
:1013200004D01548006915490968C863BAF1000F6F
:1013300004D0114800691149096808640E48C07852
:10134000BB287FF44EAE02E00DA006F08FFB00201C
:101350000A490968486309490968886307490968AF
:10136000C86306490968086409F09AFC08A006F0F9
:101370007DFB00BF9DE40000D00000241C01002480
:1013800043555256455F4552524F520D0A000000D8
:101390005130302E3030000000BFFEE770477047FC
:1013A00072B600BFFEE700000748006840F0020088
:1013B0000549086000BF04480838006800F4005080
:1013C0000028F8D0704700000C48025800BF00F019
:1013D00005F8012007F06CFDF9E7000010B54FF0AB
:1013E000FF314D48006807F071FF4FF0FF314B4867
:1013F000006807F06BFF0021494803F0A3FC0421BB
:10140000474803F09FFC0821454803F09BFC0C2152
:10141000434803F097FC4348407843490870084626
:101420000078162833D006DC012809D0022814D011
:10143000042853D11EE0202836D025284ED140E084
:101440004FF47A41032004F0CBFA4FF47A40364946
:10145000886136A006F00AFB41E04FF47A41012092
:1014600004F0BEFA4FF47A402F49886136A006F0A6
:10147000FDFA34E04FF47A41002004F0B1FA4FF461
:101480007A402949886137A006F0F0FA27E04FF446
:101490007A51002004F0A4FA4FF47A50224988616E
:1014A00037A006F0E3FA1AE04FF44851002004F0A8
:1014B00097FA4FF448501C49886139A006F0D6FAD3
:1014C0000DE04FF42051002004F08AFA4FF4205030
:1014D000154988613AA006F0C9FA00E000BF00BFD4
:1014E00000210F4803F070FB04210D4803F06CFB52
:1014F00008210B4803F068FB0C21094803F064FB4A
:101500000020084908704870354908700348006891
:1015100007F078FF10BD0000200000241C0000240C
:101520001C010024680F0024D0000024C6B5C2CAE4
:10153000C5E4D6C3B3C9B9A63AB5B1C7B0C6B5C23A
:10154000CA314B485A0D0A00C6B5C2CAC5E4D6C353
:10155000B3C9B9A63AB5B1C7B0C6B5C2CA324B48CD
:101560005A0D0A00C6B5C2CAC5E4D6C3B3C9B9A6E6
:101570003AB5B1C7B0C6B5C2CA344B485A0D0A0015
:10158000C6B5C2CAC5E4D6C3B3C9B9A63AB5B1C7D0
:10159000B0C6B5C2CA31364B485A0D0A0000000029
:1015A000C6B5C2CAC5E4D6C3B3C9B9A63AB5B1C7B0
:1015B000B0C6B5C2CA32304B485A0D0A000000000E
:1015C000C6B5C2CAC5E4D6C3B3C9B9A63AB5B1C790
:1015D000B0C6B5C2CA32354B485A0D0A00000000E9
:1015E000000100242DE9F041044600F02DFD804665
:1015F00014B90120BDE8F08194F83500022808D024
:101600008020606500BF002084F8340000BF012006
:10161000F0E7FE492068884249D0FC49183120682B
:10162000884244D0F9493031206888423FD0F74998
:101630004831206888423AD0F449603120688842B5
:1016400035D0F24978312068884230D0EF49903166
:10165000206888422BD0ED49A8312068884226D0E6
:10166000EB492068884222D0E94918312068884235
:101670001DD0E74930312068884218D0E44948310C
:101680002068884213D0E2496031206888420ED039
:10169000DF4978312068884209D0DD4990312068DF
:1016A000884204D0DA49A8312068884201D101205B
:1016B00000E0002068B12068006820F01E0021686A
:1016C00008602068406920F0800021684861256832
:1016D00006E02068006820F00E0021680860256898
:1016E000CA492068884270D0C849183120688842A9
:1016F0006BD0C64930312068884266D0C349483132
:101700002068884261D0C1496031206888425CD03D
:10171000BE4978312068884257D0BC499031206852
:10172000884252D0B949A831206888424DD0B84982
:101730002068884249D0B64918312068884244D090
:10174000B3493031206888423FD0B14948312068E0
:1017500088423AD0AE4960312068884235D0AC49E1
:1017600078312068884230D0A94990312068884279
:101770002BD0A749A8312068884226D0A5492068E7
:10178000884222D0A3491431206888421DD0A14943
:1017900028312068884218D09E493C312068884210
:1017A00013D09C495031206888420ED09949643149
:1017B0002068884209D0974978312068884204D04F
:1017C00094498C312068884201D1012000E000203A
:1017D00028B1206E006820F48070216E08608B496B
:1017E0002068884249D0894918312068884244D00D
:1017F00086493031206888423FD08449483120688A
:1018000088423AD0814960312068884235D07F498A
:1018100078312068884230D07C49903120688842F5
:101820002BD07A49A8312068884226D07849206890
:10183000884222D076491831206888421DD07449E8
:1018400030312068884218D0714948312068884278
:1018500013D06F496031206888420ED06C497831CE
:101860002068884209D06A4990312068884204D0B3
:101870006749A8312068884206D12068006820F0B6
:1018800001002168086005E02068006820F0010080
:101890002168086011E000F0D7FBA0EB08000528E4
:1018A0000BD920206065032084F8350000BF00209C
:1018B00084F8340000BF01209CE6286800F0010095
:1018C0000028E8D151492068884249D04F49183151
:1018D0002068884244D04D493031206888423FD04A
:1018E0004A494831206888423AD0484960312068E6
:1018F000884235D0454978312068884230D0434904
:101900009031206888422BD04049A8312068884215
:1019100026D03F492068884222D03D4918312068AE
:1019200088421DD03A4930312068884218D0384961
:1019300048312068884213D0354960312068884298
:101940000ED0334978312068884209D0304990312F
:101950002068884204D02E49A8312068884201D1ED
:10196000012000E0002040B1A66D94F85C0000F07A
:101970001F013F208840B06007E0A76D94F85C002D
:1019800000F01F01012088407860204920688842CB
:1019900076D01E4918312068884271D01B493031F9
:1019A000206888426CD0194948312068884267D045
:1019B000164960312068884262D014497831206825
:1019C00088425DD0114990312068884258D00F4933
:1019D000A8312068884253D00D49206888424FD0F2
:1019E0000B491831206888424AD0094930312068B3
:1019F000884245D0064948312068884240D0044991
:101A00006031206888423BD0014905E01000024067
:101A100010040240085402587831206888422FD0C0
:101A20002549206888422BD02349183120688842F4
:101A300026D022492068884222D0204914312068CB
:101A400088421DD01D4928312068884218D01B4982
:101A50003C312068884213D01849503120688842B0
:101A60000ED0164964312068884209D01349783174
:101A70002068884204D011498C312068884201D105
:101A8000012000E0002068B1D4E919104860E06E40
:101A900040B1E06E006820F48070E16E0860D4E927
:101AA0001C104860012084F8350000BF002084F835
:101AB000340000BF00BF9DE5A00402400854025856
:101AC00070B504460CB9012070BD94F835000228A9
:101AD00003D0802060650120F6E7DC492068884259
:101AE00049D0DA4918312068884244D0D74930318A
:101AF000206888423FD0D5494831206888423AD092
:101B0000D24960312068884235D0D0497831206888
:101B1000884230D0CD499031206888422BD0CB49C3
:101B2000A8312068884226D0C9492068884222D03E
:101B3000C7491831206888421DD0C5493031206816
:101B4000884218D0C24948312068884213D0C04921
:101B50006031206888420ED0BD49783120688842C3
:101B600009D0BB4990312068884204D0B849A831D7
:101B70002068884201D1012000E00020F0B3042059
:101B800084F83500B149206888424BD0AF491831FC
:101B90002068884246D0AD4930312068884241D023
:101BA000AA494831206888423CD0A8496031206861
:101BB000884237D0A54978312068884232D0A3497D
:101BC0009031206888422DD0A049A83120688842F1
:101BD00028D09F492068884224D09D491831206828
:101BE00088421FD09A493031206888421AD09849DB
:101BF00048312068884215D0954900E020E06031E6
:101C0000206888420ED0924978312068884209D0F5
:101C10008F4990312068884204D08D49A8312068CE
:101C2000884206D12068006820F001002168086021
:101C300009E12068006820F001002168086002E1E5
:101C40002068006820F00E00216808607F49206845
:101C5000884249D07D4918312068884244D07B4968
:101C60003031206888423FD0784948312068884226
:101C70003AD0764960312068884235D0734978314E
:101C80002068884230D071499031206888422BD03A
:101C90006E49A8312068884226D06D492068884264
:101CA00022D06B491831206888421DD068493031F4
:101CB0002068884218D0664948312068884213D08D
:101CC00063496031206888420ED0614978312068CC
:101CD000884209D05E4990312068884204D05C492E
:101CE000A8312068884206D12068006820F00100F1
:101CF0002168086005E02068006820F00100216884
:101D0000086052492068884270D0504918312068D4
:101D100088426BD04D4930312068884266D04B49AB
:101D200048312068884261D0484960312068884243
:101D30005CD0464978312068884257D04349903179
:101D40002068884252D04149A831206888424DD04D
:101D50003F492068884249D03D491831206888426F
:101D600044D03B493031206888423FD0384948311F
:101D7000206888423AD0364960312068884235D0A0
:101D8000334978312068884230D031499031206819
:101D900088422BD02E49A8312068884226D02D4970
:101DA0002068884222D02B491431206888421DD0F7
:101DB000284928312068884218D026493C312068BB
:101DC000884213D023495031206888420ED02149DF
:101DD00064312068884209D01E49783120688842E1
:101DE00004D01C498C312068884201D1012000E0D8
:101DF0000020D8B1206E006820F48070216E086049
:101E0000A56D94F85C0000F01F0101208840686017
:101E1000D4E919104860E06E40B1E06E006820F42B
:101E20008070E16E0860D4E91C104860012084F8DD
:101E3000350000BF002084F8340000BF206D10B1D1
:101E40002046216D884700203EE600001000024039
:101E50001004024008540258F8B502460B4600210F
:101E60006D4DD2E001278F401E6806EA0704002C62
:101E700072D01E7906F00306012E04D01E7906F0FA
:101E80000306022E13D190684F000326BE40B043D4
:101E90004F00DE68BE4030439060506801268E409F
:101EA000B0431E79C6F300168E40304350601E7951
:101EB00006F00306032E09D0D0684F000326BE406B
:101EC000B0434F009E68BE403043D0601E7906F09C
:101ED0000306022E13D1CF0802F1200656F8270080
:101EE0004E07F70E0F26BE40B0434F07FF0E1E6988
:101EF000BE403043CF0802F1200646F827001068A4
:101F00004F000326BE40B0431E7906F003064F0083
:101F1000BE40304310605E6806F44036002E73D039
:101F200000BF3E4E366846F002063C4F3E603E46DD
:101F3000366806F00206009600BF00BF384E8F08D4
:101F400056F827008E07370F0F26BE40B043354E98
:101F5000B24202D1002629E056E0334EB24201D10E
:101F6000012623E0314EB24201D102261EE0304E5E
:101F7000B24201D1032619E02E4EB24201D104260D
:101F800014E02D4EB24201D105260FE02B4EB24295
:101F900001D106260AE02A4EB24201D1072605E009
:101FA000284EB24201D1092600E00A268F073F0FD2
:101FB000BE4030431A4E8F0846F827004FF0B04617
:101FC0003068A0435E6806F4801606B120434FF0E7
:101FD000B04630607068A0435E6806F4001606B133
:101FE00020434FF0B04670606868A0435E6806F416
:101FF000003606B1204368602868A0435E6806F496
:10200000803606B120432860491C1E68CE40002E51
:102010007FF428AFF8BD000080000058F444025857
:102020000804005800000258000402580008025832
:10203000000C0258001002580014025800180258F0
:10204000001C025800240258014800687047000034
:10205000380000240348006803490978084401490E
:1020600008607047380000244000002410B50320A9
:1020700000F044F901F03CFC10490968C1F3032168
:102080000F4A515C01F01F0120FA01F40B4800686F
:1020900000F00F001146085C00F01F0024FA00F069
:1020A00008490860084804600F2000F00FF808B1E4
:1020B000012010BD00F0B8F80020FAE718440258DB
:1020C00028C30008480000244400002470B58AB0EA
:1020D0000446102C0AD2002221462C2000F0D0F811
:1020E0002C2000F0B9F81948046002E001200AB081
:1020F00070BD00BF1648006840F002001449086037
:102100000846006800F00200009000BF00BF01A96F
:1021100002A801F06DFB01F0D9FB45000D48B5FBAD
:10212000F0F0461E0C480D49086040F2E7310B48BC
:10213000C160466000210161816002F077F918B941
:10214000064802F037FAD2E70120D0E73C0000242D
:10215000F044025840420F000004014048020024AD
:102160004178154A116014490831096821F00101CC
:10217000114A08321160121F41681160017B090782
:10218000C27A41EA0261827A41EAC241427B41EA73
:102190008241827B41EA4241C27B41EA0241427A6A
:1021A00041EA0221027A41EA420102781143024ADD
:1021B000083211607047000098ED00E000BF00BFDA
:1021C00000BFBFF35F8F00BF00BF00BF05480068BE
:1021D00020F4803003490860002002497031086013
:1021E0007047000024ED00E040F001010D4A11604D
:1021F0000C497039096841F480310A4A703A11601B
:1022000000BF00BF00BFBFF34F8F00BF00BF00BFC4
:1022100000BF00BF00BFBFF36F8F00BF00BF00BF94
:102220007047000094ED00E008B500BF0948006861
:1022300040F00200074908600846006800F002000C
:10224000009000BF00BF00220F21901E00F018F880
:1022500008BD0000F44402580146084600280DDB82
:1022600000BF00BF00F01F0301229A4043099B00FA
:1022700003F1E023C3F8002100BF00BF00BF704797
:102280002DE9F05F80460D46164605F017FC07461F
:1022900039462A46334601F00700C0F1070ABAF171
:1022A000040F02D94FF0040A01E0C0F1070AD14639
:1022B00000F1040ABAF1070F02D24FF0000A01E060
:1022C000A0F1030AD4464FF0010A0AFA09FAAAF16A
:1022D000010A0AEA020A0AFA0CFA4FF0010B0BFA99
:1022E0000CFBABF1010B0BEA030B4AEA0B04214692
:1022F000404605F0EBFBBDE8F09F000000BF00F09A
:102300000702064B19684FF6FF031940044B0B43B5
:1023100043EA0221014B196000BF70470CED00E059
:102320000000FA0570B5044615480068C0F3800047
:1023300048B91348006800F00700A04201D001200E
:1023400070BD0020FCE70E48006820F00700204325
:102350000B490860FFF778FE054607E0FFF774FEBB
:10236000401BB0F57A7F01D90120E9E7044808381D
:102370000068C0F340300028F0D00020E0E7000003
:102380000C48025810B501F069FA05490968C1F313
:102390000211044A515C01F01F01C84010BD000049
:1023A0002044025828C3000870B50146844D2D68AA
:1023B00005F00303824D2D68C5F30530804D2D1DBA
:1023C0002D68C5F300147E4D14352D68C5F3CC057A
:1023D00015FB04F501EE105AB8EE411AF0EE410A71
:1023E00000286FD023B1012B4ED0022B6BD16BE0B4
:1023F000734D283D2D68C5F340153DB3704D283D04
:102400002D68C5F3C1066F4D25FA06F201EE102ABC
:10241000F8EE411A01EE100AB8EE411A81EE812A57
:102420009FED691AC0EE811A654D10352D68C5F310
:10243000080501EE105AB8EE411A31EE811AF7EE96
:10244000001A31EE211A22EE010A1CE001EE100AF8
:10245000B8EE411ADFED5D1A81EE812A9FED5A1A1E
:10246000C0EE811A564D10352D68C5F3080501EEF2
:10247000105AB8EE411A31EE811AF7EE001A31EE19
:10248000211A22EE010A5BE001EE100AB8EE411AB1
:10249000DFED4F1A81EE812A9FED4B1AC0EE811AB3
:1024A000474D10352D68C5F3080501EE105AB8EEFA
:1024B000411A31EE811AF7EE001A31EE211A22EE9E
:1024C000010A3DE077E01DE001EE100AB8EE411A86
:1024D0009FED402AC2EE011A9FED3B1A80EE812A41
:1024E000374D10352D68C5F3080501EE105AB8EECA
:1024F000411A32EE011AB7EE002A31EE021A21EE2D
:10250000810A1DE001EE100AB8EE411ADFED301A23
:1025100081EE812A9FED2C1AC0EE811A284D1035CC
:102520002D68C5F3080501EE105AB8EE411A31EED8
:10253000811AF7EE001A31EE211A22EE010A00BFCD
:1025400000BF1F4D10352D68C5F3462501EE105A0A
:10255000B8EE411AF7EE001A31EE211AC0EE011A58
:10256000BCEEE11A81ED001A154D10352D68C5F34A
:10257000064501EE105AB8EE411AF7EE001A31EE98
:10258000211AC0EE011ABCEEE11A81ED011A0C4DC0
:1025900010352D68C5F3066501EE105AB8EE411AE4
:1025A000F7EE001A31EE211AC0EE011ABCEEE11A64
:1025B00081ED021A03E000250D604D608D6070BD55
:1025C000284402580090D003000000460024744CB8
:1025D0000024744A20BCBE4B70B50146844D2D6862
:1025E00005F00303824D2D68C5F30550804D2D1D68
:1025F0002D68C5F300247E4D1C352D68C5F3CC0530
:1026000015FB04F501EE105AB8EE411AF0EE410A3E
:1026100000286FD023B1012B4ED0022B6BD16BE081
:10262000734D283D2D68C5F340153DB3704D283DD1
:102630002D68C5F3C1066F4D25FA06F201EE102A8A
:10264000F8EE411A01EE100AB8EE411A81EE812A25
:102650009FED691AC0EE811A654D18352D68C5F3D6
:10266000080501EE105AB8EE411A31EE811AF7EE64
:10267000001A31EE211A22EE010A1CE001EE100AC6
:10268000B8EE411ADFED5D1A81EE812A9FED5A1AEC
:10269000C0EE811A564D18352D68C5F3080501EEB8
:1026A000105AB8EE411A31EE811AF7EE001A31EEE7
:1026B000211A22EE010A5BE001EE100AB8EE411A7F
:1026C000DFED4F1A81EE812A9FED4B1AC0EE811A81
:1026D000474D18352D68C5F3080501EE105AB8EEC0
:1026E000411A31EE811AF7EE001A31EE211A22EE6C
:1026F000010A3DE077E01DE001EE100AB8EE411A54
:102700009FED402AC2EE011A9FED3B1A80EE812A0E
:10271000374D18352D68C5F3080501EE105AB8EE8F
:10272000411A32EE011AB7EE002A31EE021A21EEFA
:10273000810A1DE001EE100AB8EE411ADFED301AF1
:1027400081EE812A9FED2C1AC0EE811A284D183592
:102750002D68C5F3080501EE105AB8EE411A31EEA6
:10276000811AF7EE001A31EE211A22EE010A00BF9B
:1027700000BF1F4D18352D68C5F3462501EE105AD0
:10278000B8EE411AF7EE001A31EE211AC0EE011A26
:10279000BCEEE11A81ED001A154D18352D68C5F310
:1027A000064501EE105AB8EE411AF7EE001A31EE66
:1027B000211AC0EE011ABCEEE11A81ED011A0C4D8E
:1027C00018352D68C5F3066501EE105AB8EE411AAA
:1027D000F7EE001A31EE211AC0EE011ABCEEE11A32
:1027E00081ED021A03E000250D604D608D6070BD23
:1027F000284402580090D003000000460024744C86
:102800000024744A20BCBE4B2DE9F041044600254B
:10281000A8464FF00062D4E9001011400020134692
:1028200059404040014331D1606E48B1B0F5801F3E
:102830000DD0B0F5001F11D0B0F5401F16D114E037
:10284000FE48006840F40030FC49086010E00221B6
:1028500004F1080003F006FA054609E0022104F13C
:10286000280003F0B1FA054602E001E0012500BFAF
:1028700000BF55B9F1482430006820F44010616E63
:102880000843EE492431086000E0A8464FF4807206
:10289000D4E9001011400020134659404040014344
:1028A0002ED1A06D05281BD2DFE800F0030A111815
:1028B0001900E248006840F40030E049086011E087
:1028C000002104F1080003F0CDF905460AE00021DB
:1028D00004F1280003F078FA054603E002E001E085
:1028E000012500BF00BF55B9D4482430006820F04E
:1028F0000700A16D0843D1492431086000E0A846D3
:102900004FF48062D4E90010114000201346594072
:10291000404001433DD1D4F8A400B0F5C00F24D00D
:1029200007DC68B1B0F5001F11D0B0F5800F1FD1E2
:1029300014E0B0F5000F19D0B0F5200F18D116E053
:10294000BE48006840F40030BC49086012E0002135
:1029500004F1080003F086F905460BE0002104F1BC
:10296000280003F031FA054604E003E002E001E04C
:10297000012500BF00BF5DB9B0482C30006820F4CD
:102980006000D4F8A4100843AC492C31086000E082
:10299000A8464FF40062D4E900011040002113461C
:1029A0005840494008433DD1D4F8A800B0F1407FD9
:1029B00024D007DC68B1B0F1807F11D0B0F1007F86
:1029C0001FD114E0B0F1806F19D0B0F1A06F18D111
:1029D00016E09A48006840F400309849086012E018
:1029E000002104F1080003F03DF905460BE0002149
:1029F00004F1280003F0E8F9054604E003E002E0F2
:102A000001E0012500BF00BF5DB98C482C30006893
:102A100020F0E060D4F8A810084388492C31086001
:102A200000E0A8464FF00073D4E9001019400020E0
:102A300059404040014328D1E06CA8B1102804D08F
:102A4000202809D0302810D10DE07C48006840F4DF
:102A500000307A4908600AE0022104F1080003F01E
:102A600001F9054603E002E001E0012500BF00BFD7
:102A700055B972482030006820F03000E16C0843FE
:102A80006E492031086000E0A8464FF48053D4E935
:102A900000101940002059404040014337D1E06DFB
:102AA000B0F5005F1AD004DC50B1B0F5805F1ED1E4
:102AB0000DE0B0F5405F18D0B0F5804F17D115E0AC
:102AC0005E48006840F400305C49086011E0002175
:102AD00004F1080003F0C6F805460AE0002104F1FD
:102AE000280003F071F9054603E002E001E001254A
:102AF00000BF00BF55B951482430006820F4E040C1
:102B0000E16D08434D492431086000E0A8464FF4C8
:102B10000053D4E9001019400020594040400143BF
:102B200035D1206EB0F5403F1ED007DC68B1B0F55E
:102B3000803F0BD0B0F5003F19D10EE0B0F5802FEB
:102B400013D0B0F5A02F12D110E012E0012104F152
:102B5000080003F087F805460BE0012104F1280086
:102B600003F032F9054604E003E002E001E001254C
:102B700000BF00BF55B931482430006820F4E02080
:102B8000216E08432D492431086000E0A8464FF427
:102B90008042D4E9000110400021134658404940CA
:102BA000084337D1D4F8AC00B0F1405F1ED007DC49
:102BB00068B1B0F1805F0BD0B0F1005F19D10EE0C9
:102BC000B0F1804F13D0B0F1A04F12D110E012E05D
:102BD000012104F1080003F045F805460BE001214E
:102BE00004F1280003F0F0F8054604E003E002E0F9
:102BF00001E0012500BF00BF5DB910482C3000681E
:102C000020F0E040D4F8AC1008430C492C310860A7
:102C100000E0A8464FF40043D4E900011840002129
:102C20005840494008432AD1E06EB8B1B0F1805F06
:102C300006D0B0F1005F12D109E000002C44025828
:102C4000F948006840F40030F749086009E00121C4
:102C500004F1080003F006F8054602E001E0012552
:102C600000BF00BF55B9F0482430006820F0405044
:102C7000E16E0843EC492431086000E0A8464FF0BB
:102C80008073D4E9001019400020594040400143AE
:102C900028D1A06CA8B1012804D0022809D00328AB
:102CA00010D10DE0E048006840F40030DE490860D3
:102CB0000AE0022104F1080002F0D4FF054603E017
:102CC00002E001E0012500BF00BF55B9D648203021
:102CD000006820F00300A16C0843D349203108604C
:102CE00000E0A8464FF48003D4E90010194000200A
:102CF0005940404001437DD1CC48006840F4807089
:102D0000CA490860FFF7A0F9064606E0FFF79CF9FC
:102D1000801B642801D9032505E0C448006800F43D
:102D200080700028F2D000BF85BBBF4844300068E7
:102D300000F44070B4F8B01001F44071884213D030
:102D4000B9484430006820F44077B7484430006800
:102D500040F48030B449443108600846006820F4EB
:102D60008030086008460760D4F8B000B0F5807F76
:102D700015D1FFF769F9064609E0FFF765F9801BF1
:102D800041F28831884202D9032507E038E0A6489D
:102D900044300068C0F340000028EED000BF55BBAF
:102DA00000BFB4F8B00000F44070B0F5407F0ED121
:102DB0009D481C38006820F47C519D4AD4F8B0002E
:102DC000104041EA101098491C39086007E0964805
:102DD0001C38006820F47C5093491C3908609248E4
:102DE00044300068B4F8B010C1F30B0108438E49B9
:102DF000443101E005E001E0086002E0A84600E09F
:102E0000A8460122D4E90001104000211346584091
:102E10004940084330D1A06F18281AD005DC48B1CA
:102E2000082808D0102817D10CE0202812D0282814
:102E300012D110E012E0012104F1080002F012FFAB
:102E400005460BE0012104F1280002F0BDFF054614
:102E500004E003E002E001E0012500BF00BF55B936
:102E600071482830006820F03800A16F08436E498F
:102E70002831086000E0A8460223D4E90010194078
:102E8000002059404040014329D1606F062816D2E6
:102E9000DFE800F003040B12131412E0012104F127
:102EA000080002F0DFFE05460BE0012104F12800D6
:102EB00002F08AFF054604E003E002E001E001259C
:102EC00000BF00BF55B958482830006820F00700FF
:102ED000616F084354492831086000E0A846042285
:102EE000D4E90010114000201346594040400143EE
:102EF0002BD1D4F89000062816D2DFE800F00304A6
:102F00000B12131412E0012104F1080002F0AAFED2
:102F100005460BE0012104F1280002F055FF0546AB
:102F200004E003E002E001E0012500BF00BF5DB95D
:102F30003D482C30006820F00700D4F8901008437A
:102F400039492C31086000E0A8462023D4E900016B
:102F50001840002158404940084337D1D4F88C002C
:102F6000B0F1405F1ED007DC68B1B0F1805F0BD0DC
:102F7000B0F1005F19D10EE0B0F1804F13D0B0F185
:102F8000A04F12D110E012E0002104F1080002F07D
:102F900069FE05460BE0022104F1280002F014FF4F
:102FA000054604E003E002E001E0012500BF00BFA8
:102FB0005DB91D482830006820F0E040D4F88C103E
:102FC000084319492831086000E0A8464023D4E9A5
:102FD0000010194000205940404001433CD1D4F832
:102FE0009800B0F5406F25D007DC68B1B0F5806F70
:102FF0000BD0B0F5006F20D10EE0B0F5805F1AD095
:10300000B0F5A05F19D117E019E0002104F1080024
:1030100002F028FE054612E0022104F1280002F029
:10302000D3FE05460BE000002C440258004802582D
:10303000FFFCFF0F03E002E001E0012500BF00BF3D
:103040004DB9FE48006820F4E050D4F898100843C9
:10305000FA49086000E0A8468023D4E9001019402E
:10306000002059404040014335D1D4F89C00B0F5D0
:10307000C04F1ED007DC68B1B0F5005F0BD0B0F5D3
:10308000804F19D10EE0B0F5004F13D0B0F5204FAE
:1030900012D110E012E0002104F1080002F0E2FD7C
:1030A00005460BE0022104F1280002F08DFE0546E2
:1030B00004E003E002E001E0012500BF00BF4DB9DC
:1030C000DE48006820F46040D4F89C100843DB49D7
:1030D000086000E0A8460823D4E900011840002158
:1030E00058404940084317D1D4F88000B0F5805FBC
:1030F00007D1022104F1280002F066FE08B14FF06A
:103100000108CE48001F006820F44050D4F8801019
:103110000843CA49091F08601023D4E90001184078
:10312000002158404940084315D1D4F89400B0F527
:10313000807F07D1022104F1280002F045FE08B18A
:103140004FF00108BD48006820F44070D4F8941096
:103150000843BA4908604FF40023D4E9000118403D
:10316000002158404940084327D1D4F8A00030B18D
:10317000B0F5803F0AD0B0F5003F0FD10DE000213F
:1031800004F1080002F06EFD054609E0022104F199
:10319000280002F019FE054602E001E0012500BF0B
:1031A00000BF4DB9A548006820F44030D4F8A01005
:1031B0000843A249086000E0A8464FF48023D4E900
:1031C0000001184000215840494008432DD1D4F84F
:1031D0008400B0F5801F06D0B0F5001F0CD0B0F50C
:1031E000401F11D10FE095482C38006840F40030A2
:1031F00092492C39086009E0012104F1280002F00D
:10320000E3FD054602E001E0012500BF00BF5DB916
:103210008A48001F006820F44010D4F88410084346
:103220008649091F086000E0A8464FF48032D4E9BF
:10323000000110400021134658404940084325D161
:10324000206D18B1B0F5803F10D108E07B482C38D4
:10325000006840F4003079492C39086008E0022108
:1032600004F1080002F0FEFC054601E0012500BF64
:1032700000BF55B971480C38006820F48030216DCA
:1032800008436E490C39086000E0A8464FF000532F
:10329000D4E900101940002059404040014307D1B3
:1032A000022104F1280002F08FFD08B14FF001085F
:1032B0004FF40032D4E90001104000211346584079
:1032C0004940084327D1E06FA0B1B0F5807F06D018
:1032D000B0F5007F0CD0B0F5407F0CD109E0574825
:1032E0002C38006840F4003054492C39086004E060
:1032F00003E002E001E0012500BF00BF55B94F48DF
:10330000001F006820F44070E16F08434B49091F1B
:10331000086000E0A8464FF48012D4E90010114084
:103320000020134659404040014309D14348083822
:10333000006820F00040216F0843404908390860C8
:103340004FF40013D4E900011840002158404940CF
:10335000084309D139480838006820F08070A16E10
:1033600008433649083908604FF08043D4E900101B
:103370001940002059404040014311D100BF2F485F
:103380004838006820F400402C4948390860084655
:103390000068D4F8B410084328494839086000BFD1
:1033A0004FF00042D4E9000110400021134658407C
:1033B0004940084309D121480C38006820F04050AA
:1033C000616D08431D490C3908604FF40002D4E9CF
:1033D00000101140002013465940404001430AD1DB
:1033E0001648001F006820F44000D4F888100843F5
:1033F0001249091F086001220021606810404940FD
:103400005040014306D104F1080002F02BFC0546B0
:1034100005B1A84602220021606810404940504092
:10342000014307D1012104F1080002F01BFC05460D
:1034300005B1A84604230020616801E05844025801
:103440001940042240405140084307D1022104F1B1
:10345000080002F007FC054605B1A8460823002035
:1034600061681940082240405140084307D10021BB
:1034700004F1280002F0A8FC054605B1A846102377
:10348000002061681940102240405140084307D194
:10349000012104F1280002F097FC054605B1A84679
:1034A000202200216068104049405040014307D16C
:1034B000022104F1280002F087FC054605B1A84668
:1034C000B8F1000F02D10020BDE8F0810120FBE738
:1034D0002DE9F04104460D4614B90120BDE8F08104
:1034E000BD48006800F00F00A8420ED2BA4800683C
:1034F00020F00F002843B84908600846006800F033
:103500000F00A84201D00120E8E7207800F0040075
:1035100004280ED1B1492069096801F07001884280
:1035200007D9AE48006820F0700021690843AB4914
:103530000860207800F00800082811D1A749091D6B
:103540006069096801F07001884209D9A348001D2B
:10355000006820F0700061690843A049091D0860F7
:10356000207800F01000102811D19C49091DA06995
:10357000096801F4E061884209D99848001D006893
:1035800020F4E060A16908439449091D086020788F
:1035900000F02000202811D190490831E069096825
:1035A00001F07001884209D98C480830006820F089
:1035B0007000E1690843894908310860207800F00B
:1035C000020002280ED18549E068096801F00F0168
:1035D000884207D98148006820F00F00E16808435D
:1035E0007E490860207800F00100002850D07B4818
:1035F000006820F47060A16808437849086060683A
:10360000022807D1754818380068C0F34040F8B95F
:10361000012063E76068032807D170481838006804
:10362000C0F34060A0B9012058E76068012807D1C5
:103630006A4818380068C0F3002048B901204DE7F7
:10364000664818380068C0F3800008B9012045E7D3
:1036500062480838006820F00700616808435F4945
:1036600008390860FEF7F0FC064608E0FEF7ECFCBF
:10367000801B41F28831884201D903202EE7574848
:103680000838006800F038006168B0EBC10FEDD178
:10369000207800F0020002280ED15049E068096845
:1036A00001F00F01884207D24C48006820F00F005B
:1036B000E1680843494908604748006800F00F0086
:1036C000A8420ED94448006820F00F002843424920
:1036D00008600846006800F00F00A84201D00120F1
:1036E000FCE6207800F0040004280ED13B49206954
:1036F000096801F07001884207D23848006820F05C
:1037000070002169084335490860207800F00800FE
:10371000082811D13149091D6069096801F070015B
:10372000884209D22D48001D006820F070006169B0
:1037300008432A49091D0860207800F0100010286D
:1037400011D12649091DA069096801F4E061884288
:1037500009D22248001D006820F4E060A1690843F6
:103760001E49091D0860207800F02000202811D192
:103770001A490831E069096801F07001884209D2EC
:1037800016480830006820F07000E16908431349CA
:103790000831086000F0ACF810490968C1F3032152
:1037A0000F4A515C01F01F0120FA01F70B48006835
:1037B00000F00F001146085C00F01F0027FA00F02F
:1037C000084908600848076008480068FEF77EFC62
:1037D0008046404682E6000000200052184402580D
:1037E00028C3000848000024440000243C000024B2
:1037F0003F220260174A126802F007024260154A2F
:103800000832126802F470628260124A083212684A
:1038100002F00F02C2600F4A0832126802F0700212
:1038200002610C4A0C32126802F070024261094ACD
:103830000C32126802F4E0628261064A10321268A9
:1038400002F07002C261044A126802F00F020A60BC
:1038500070470000104402580020005210B500F0DC
:1038600047F80D490968C1F303210C4A515C01F086
:103870001F0120FA01F40848006800F00F0011460B
:10388000085C00F01F0024FA00F0054908600548B4
:1038900004600846006810BD1844025828C3000898
:1038A000480000244400002400B5FFF7D7FF054975
:1038B0000968C1F30211044A515C01F01F01C840BC
:1038C00000BD00001C44025828C3000800B5FFF7E3
:1038D000C5FF05490968C1F30221044A515C01F0A2
:1038E0001F01C84000BD00001C44025828C3000846
:1038F000F0B5824E366806F0380636B1082E15D07F
:10390000102E15D0182E7DD114E07C4E103E366856
:10391000C6F3401646B1794E103E3668C6F3C1076D
:10392000774E26FA07F000E07548E5E07548E3E0D9
:103930007548E1E0714E1836366806F003046F4EA4
:1039400018363668C6F305116C4E1C36366806F01C
:1039500001056A4E24363668C6F3CC0616FB05F61A
:1039600001EE106AB8EE410A002971D024B1012C91
:1039700050D0022C6DD16DE0604E103E3668C6F31B
:1039800040163EB35D4E103E3668C6F3C1075C4E2E
:1039900026FA07F301EE103AF8EE411A01EE101A7A
:1039A000B8EE411A81EE812A9FED581AC0EE011A35
:1039B000524E20363668C6F3080601EE106AB8EE9D
:1039C000411A31EE811AF7EE001A31EE211A62EE39
:1039D000010A1EE001EE101AB8EE411ADFED4C1A92
:1039E00081EE812A9FED491AC0EE011A434E20361E
:1039F0003668C6F3080601EE106AB8EE411A31EED9
:103A0000811A00E076E0F7EE001A31EE211A62EE3C
:103A1000010A5BE001EE101AB8EE411A9FED3D2A53
:103A2000C2EE011A9FED391A80EE012A334E20367C
:103A30003668C6F3080601EE106AB8EE411A32EE97
:103A4000011AB7EE002A31EE021A61EE810A3DE05A
:103A50004EE01DE001EE101AB8EE411ADFED2E1A0D
:103A600081EE812A9FED291AC0EE011A234E2036DD
:103A70003668C6F3080601EE106AB8EE411A31EE58
:103A8000811AF7EE001A31EE211A62EE010A1DE0EA
:103A900001EE101AB8EE411A9FED1E2AC2EE011A6D
:103AA0009FED1A1A80EE012A144E20363668C6F3AE
:103AB000080601EE106AB8EE411A32EE011AB7EEAE
:103AC000002A31EE021A61EE810A00BF00BF0B4EE0
:103AD00020363668C6F34626721C01EE102AB8EE70
:103AE000411AC0EE811ABCEEE11A11EE100A00E094
:103AF000002001E0034800BF00BFF0BD10440258A1
:103B00000090D00300093D0040787D010000004690
:103B10000024744C0024744A20BCBE4B2DE9F047AD
:103B2000044614B90120BDE8F087207800F00100B8
:103B3000002870D0F948006800F03808F7481830BD
:103B4000D0F80090B8F1100F06D0B8F1180F0FD1CF
:103B500009F0030002280BD1F04810380068C0F3C8
:103B6000404000286AD06068002867D10120DAE769
:103B700000BF6068B0F5803F08D1E84810380068A1
:103B800040F48030E549103908602EE0606868B97B
:103B9000E2481038006820F48030E04910390860AD
:103BA0000846006820F4802008601EE06068B0F5D8
:103BB000A02F0DD1D9481038006840F48020D74993
:103BC000103908600846006840F4803008600CE056
:103BD000D2481038006820F48030D049103908608D
:103BE0000846006820F48020086000BF606898B133
:103BF000FEF72AFA054606E0FEF726FA401B64287F
:103C000001D903208FE7C54810380068C0F3404051
:103C10000028F1D012E012E0FEF716FA054606E0A1
:103C2000FEF712FA401B642801D903207BE7BB484A
:103C300010380068C0F340400028F1D100BF207860
:103C400000F00200022879D1B448006800F038087A
:103C5000B2481830D0F80090B8F1000F05D0B8F194
:103C6000180F35D109F0030088BBAC481038006844
:103C7000C0F3800018B1E06808B9012053E7A748F5
:103C80001038006820F01900E1680843A349103992
:103C90000860FEF7D9F9054606E0FEF7D5F9401BA6
:103CA000022801D903203EE79C4810380068C0F381
:103CB00080000028F1D099480C38006820F0FE40C0
:103CC000217C40EA016095490C39086045E0FFE736
:103CD000E06838B391481038006820F01900E168B6
:103CE00008438E4910390860FEF7AEF9054606E034
:103CF000FEF7AAF9401B022801D9032013E78748E1
:103D000010380068C0F380000028F1D083480C38D8
:103D1000006820F0FE40217C40EA01607F490C39B8
:103D200008601AE07D481038006820F001007B49E7
:103D300010390860FEF788F9054607E00EE0FEF747
:103D400083F9401B022801D90320ECE673481038A0
:103D50000068C0F380000028F1D100BF207800F097
:103D6000100010286FD16D48006800F038086B48CB
:103D70001830D0F80090B8F1080F06D0B8F1180F3D
:103D80001CD109F00300012818D1644810380068DC
:103D9000C0F3002020B1E069802801D00120C2E6F4
:103DA00000BF5E48001F006820F07C5094F820108F
:103DB00040EA01605949091F086043E0E06938B3EF
:103DC00056481038006840F08000544910390860A7
:103DD000FEF73AF9054606E0FEF736F9401B0228E1
:103DE00001D903209FE64D4810380068C0F3002039
:103DF0000028F1D000BF4948001F006820F07C5027
:103E000094F8201040EA01604449091F086019E055
:103E100042481038006820F080004049103908609E
:103E2000FEF712F9054606E0FEF70EF9401B0228E0
:103E300001D9032077E6394810380068C0F3002024
:103E40000028F1D100BF207800F00800082836D102
:103E50006069D0B131486430006840F001002F49FA
:103E600064310860FEF7F0F8054606E0FEF7ECF86E
:103E7000401B022801D9032055E628486430006819
:103E8000C0F340000028F1D019E0244864300068F5
:103E900020F00100214964310860FEF7D5F805469D
:103EA00006E0FEF7D1F8401B022801D903203AE6CC
:103EB0001A4864300068C0F340000028F1D120782F
:103EC00000F02000202838D1A069D0B11348103864
:103ED000006840F48050114910390860FEF7B4F8CA
:103EE000054606E0FEF7B0F8401B022801D9032082
:103EF00019E60A4810380068C0F340300028F1D0B5
:103F00001BE006481038006820F48050034910393F
:103F10000860FEF799F8054609E0000010440258D1
:103F2000FEF792F8401B022801D90320FBE5D04898
:103F30000068C0F340300028F2D1207800F004007F
:103F400004287DD1CB48006840F48070C9490860DE
:103F5000FEF77AF8054606E0FEF776F8401B64287F
:103F600001D90320DFE5C348006800F48070002811
:103F7000F2D000BFA068012808D1BD4870300068A9
:103F800040F00100BA49703108602DE0A06868B9BE
:103F9000B7487030006820F00100B5497031086002
:103FA0000846006820F0040008601DE0A0680528AD
:103FB0000DD1AF487030006840F00400AC4970315A
:103FC00008600846006840F0010008600CE0A8485E
:103FD0007030006820F00100A54970310860084683
:103FE000006820F00400086000BFA068A0B1FEF7E0
:103FF0002BF8054608E0FEF727F8401B41F2883110
:10400000884201D903208EE5994870300068C0F3DA
:1040100040000028EFD013E0FEF716F8054608E050
:10402000FEF712F8401B41F28831884201D9032083
:1040300079E58F4870300068C0F340000028EFD168
:10404000606A00287DD08A481030006800F038008F
:10405000182877D0606A022875D18548006820F05A
:10406000807083490860FDF7EFFF054606E0FDF725
:10407000EBFF401B022801D9032054E57C4800686F
:10408000C0F340600028F2D100BFD4E90A1041EA31
:10409000001077492831096840F2F3329143084310
:1040A000734928310860208E401EC0F30800616B00
:1040B000491E4FF47E4202EA41210843218F491EE6
:1040C000D20102EA014108433C21095D491E120266
:1040D00002EA0161084366493031086000BF081FE9
:1040E000006820F00100091F086061483430006852
:1040F0004FF6F8718843A16C40EAC1005C49343145
:1041000008605B482C30006820F00C00216C0843EC
:1041100057492C3108600846006820F00200616CA5
:10412000084353492C3108600846006840F4803049
:1041300008600846006840F40030086008460068DF
:1041400002E092E038E01FE040F48020086008467A
:10415000006840F0010008604548006840F0807049
:1041600043490860FDF770FF054606E0FDF76CFF68
:10417000401B022801D90320D5E43D480068C0F364
:1041800040600028F2D070E03948006820F080706C
:1041900037490860FDF758FF054606E0FDF754FF74
:1041A000401B022801D90320BDE431480068C0F358
:1041B00040600028F2D158E02D48283007682C488C
:1041C00030300668606A012821D007F00301A06A38
:1041D00081421CD1C7F30511E06A884217D1C6F3AA
:1041E0000801206B401E814211D1606B401EC6F356
:1041F000462188420BD1A06B401EC6F3064188427F
:1042000005D1E06B401EC6F30661884201D0012053
:1042100089E4174834300068C0F3CC07A06CB8427A
:1042200023D013482C30006820F0010010492C31B5
:104230000860FDF709FF054600BFFDF705FF401BBD
:10424000FBD00B48343000684FF6F8718843A16CFE
:1042500040EAC10006493431086005482C30006846
:1042600040F0010002492C31086000205BE40000AE
:1042700000440258004802587047704770470000D9
:1042800010B50346002200BF93F83C00012801D17D
:10429000022010BD012083F83C0000BF22F0FF0087
:1042A000CC6840EA040222F440708C6840EA0402C0
:1042B00022F480604C6840EA040222F400600C683A
:1042C00040EA040222F480500C6940EA040222F41D
:1042D00000504C6940EA040222F480400C6B40EA32
:1042E000040222F470200C8B40EA044222F0805039
:1042F000CC6940EA0402124C1868A04203D0114C69
:104300001868A04213D122F470000C8D40EA0452C8
:1043100022F080700C6A40EA040222F000704C6ABD
:1043200040EA040222F00050CC6A40EA0402186815
:10433000426400BF002083F83C0000BF00BFA8E734
:10434000000001400004014030B502460B4600BFAA
:1043500092F83C00012801D1022030BD012082F8F2
:104360003C0000BF022082F83D00106841681068E0
:104370008468254D1068A84203D0244D1068A842D7
:1043800003D121F470015868014321F070011868CD
:104390000143106841601C4D1068A84223D010688A
:1043A000B0F1804F1FD01A4D1068A8421BD0194D94
:1043B0001068A84217D0184D1068A84213D0134DAA
:1043C0001068A8420FD0154D1068A8420BD0144DAC
:1043D0001068A84207D0134D1068A84203D0124DB0
:1043E0001068A84205D124F080049868044310683E
:1043F0008460012082F83D0000BF002082F83C006C
:1044000000BF00BFA9E70000000001400004014018
:104410000004004000080040000C0040001800406C
:104420000040014000E0004000E4004010B50446B8
:104430000CB9012010BD94F83D0028B9002084F883
:104440003C00204600F02AF8022084F83D00211D9F
:10445000206801F07BFE012084F8480000BF84F84A
:104460003E0001213F2001554020015541200155CA
:10447000422001554320015500BF00BF012084F8B0
:10448000440045200155462001554720015500BFF5
:10449000012084F83D000020CCE7000008B5134A55
:1044A000016891420DD100BF1149096841F0010135
:1044B0000F4A11601146096801F00101009100BF27
:1044C00013E00168B1F1804F0FD100BF08490839EE
:1044D000096841F00101064A083A1160114609686D
:1044E00001F00101009100BF00BF08BD00000140C4
:1044F000F0440258014691F83D00012801D0012006
:104500007047022081F83D00204B0868984223D074
:104510000868B0F1804F1FD01D4B086898421BD02F
:104520001C4B0868984217D01B4B0868984213D060
:104530001A4B086898420FD0194B086898420BD064
:10454000184B0868984207D0174B0868984203D068
:10455000164B0868984210D108688068144B00EA2E
:104560000302062A0FD0B2F5803F0CD0086800681D
:1045700040F001000B68186005E00868006840F032
:1045800001000B6818600020BAE70000000001403D
:104590000004004000080040000C004000040140FE
:1045A000001800400040014000E0004000E40040EE
:1045B00007000100014691F83D00012801D00120CB
:1045C0007047022081F83D000868C06840F0010093
:1045D0000B68D860204B0868984223D00868B0F177
:1045E000804F1FD01D4B086898421BD01C4B086899
:1045F000984217D01B4B0868984213D01A4B086892
:1046000098420FD0194B086898420BD0184B086895
:10461000984207D0174B0868984203D0164B086899
:10462000984210D108688068144B00EA0302062AF9
:104630000FD0B2F5803F0CD00868006840F0010050
:104640000B68186005E00868006840F001000B681E
:1046500018600020B4E700000000014000040040A2
:1046600000080040000C0040000401400018004019
:104670000040014000E0004000E40040070001006D
:10468000014600BF0868006A41F21112104050B99B
:104690000868006A9210104028B90868006820F085
:1046A00001000A68106000BF012081F83D00002071
:1046B000704700002DE9F04104460D46002700BF79
:1046C00094F83C00012802D10220BDE8F0810120CD
:1046D00084F83C0000BF022084F83D002068866812
:1046E0004048064026F47F46206886602868702887
:1046F00026D00CDC00F00F01002966D1001107283C
:1047000063D2DFE800F0555657584B374100B0F1FF
:10471000101F52D009DCB0F5805F10D0B0F5005FFB
:104720001BD0B0F5801F50D146E0A0F58010203896
:10473000002843D0102842D0202846D140E046E04F
:10474000D5E902136A68206801F085FD2068866853
:1047500046F077062068866039E0D5E902136A687A
:10476000206801F078FD2068806840F4804021686E
:1047700088602CE0EA686968206801F037FF502102
:10478000206801F073FD22E0EA686968206801F0A2
:1047900040FF6021206801F069FD18E0EA6869685F
:1047A000206801F023FF4021206801F05FFD0EE04A
:1047B00000BF00BF00BF00BF00BF00BF00BF00BF01
:1047C0002968206801F052FD01E0012700BF00BF09
:1047D000012084F83D0000BF002084F83C0000BFA9
:1047E000384672E788FFCEFF704770B504462068F0
:1047F000C6682068056905F00200022819D106F094
:104800000200022815D1401F21680861012020778D
:104810002068806900F0030018B12046FFF7E4FF2C
:1048200005E0204600F0DEF8204600F0CCF900203C
:10483000207705F00400042819D106F004000428AC
:1048400015D1C04321680861022020772068806963
:1048500000F4407018B12046FFF7C6FF05E020467F
:1048600000F0C0F8204600F0AEF90020207705F0F7
:104870000800082819D106F00800082815D1C043FF
:1048800021680861042020772068C06900F00300D7
:1048900018B12046FFF7A8FF05E0204600F0A2F877
:1048A000204600F090F90020207705F01000102835
:1048B00019D106F01000102815D1C04321680861F5
:1048C000082020772068C06900F4407018B12046A5
:1048D000FFF78AFF05E0204600F084F8204600F04C
:1048E00072F90020207705F0010048B106F00100C0
:1048F00030B16FF0010021680861204600F094FAA1
:1049000005F08000802804D005F40050B0F5005F69
:104910000AD106F08000802806D16FF40250216889
:1049200008612046FFF7A9FC05F48070B0F5807F90
:104930000AD106F08000802806D16FF480702168CB
:1049400008612046FFF798FC05F04000402809D197
:1049500006F04000402805D1C04321680861204688
:1049600000F06EFA05F02000202809D106F02000A2
:10497000202805D1C043216808612046FFF77EFC4E
:1049800070BD000010B586B00446142101A8FBF7E5
:1049900069FD1149206888421BD100BF0F4800689B
:1049A00040F001000D4908600846006800F0010071
:1049B000009000BF00BF4FF4706001900220029091
:1049C0000020039004900120059001A90448FDF700
:1049D00043FA06B010BD000000000140E044025858
:1049E0000000025870472DE9F04104460D46164676
:1049F000002700BF94F83C00012802D10220BDE846
:104A0000F081012084F83C0000BF0C2E51D005DC61
:104A10004EB1042E1ED0082E7AD133E0102E60D075
:104A2000142EF9D175E02946206801F02BFC20688E
:104A3000806940F00800216888612068806920F062
:104A40000400216888612068806929690843216819
:104A5000886178E02946206801F06AFC2068806956
:104A600040F40060216888612068806920F48060DB
:104A70002168886120688069296940EA01202168ED
:104A8000886160E02946206801F0ACFC2068C069BC
:104A900040F008002168C8612068C06920F0040067
:104AA0002168C8612068C069296908432168C86114
:104AB00049E02946206801F0EFFC2068C06940F415
:104AC00000602168C8612068C06920F480602168A6
:104AD000C8612068C069296940EA01202168C8616D
:104AE00031E02946206801F011FD2068406D40F05A
:104AF0000800216848652068406D20F004002168A6
:104B000048652068406D29690843216848651AE0B6
:104B100017E02946206801F031FD2068406D40F41F
:104B20000060216848652068406D20F4806021683D
:104B300048652068406D296940EA01202168486580
:104B400001E0012700BF00BF00BF002084F83C0047
:104B500000BF384653E710B504460CB9012010BD1C
:104B600094F83D0028B9002084F83C00204600F06D
:104B700029F8022084F83D00211D206801F0E6FAA2
:104B8000012084F8480000BF84F83E0001213F2046
:104B90000155402001554120015542200155432037
:104BA000015500BF00BF012084F844004520015595
:104BB000462001554720015500BF012084F83D00E3
:104BC0000020CCE77047704770B504460D4615B914
:104BD00094F83E0015E0042D02D13F20005D10E066
:104BE000082D02D14020005D0BE00C2D02D14120A8
:104BF000005D06E0102D02D14220005D01E043205F
:104C0000005D012801D0012070BD1DB9022084F88B
:104C10003E001AE0042D03D102213F20015514E08B
:104C2000082D03D10221402001550EE00C2D03D1A7
:104C300002214120015508E0102D03D1022142201C
:104C4000015502E002214320015501222946206836
:104C500001F0F0FA2F49206888420FD02E492068D1
:104C600088420BD02D492068884207D02C49206803
:104C7000884203D02B492068884201D1012000E0FE
:104C8000002028B12068406C40F40040216848644E
:104C900020492068884223D02068B0F1804F1FD07F
:104CA0002149206888421BD020492068884217D0BB
:104CB0001F492068884213D01749206888420FD0C6
:104CC0001C49206888420BD014492068884207D0CC
:104CD00019492068884203D018492068884210D1B9
:104CE00020688068164900EA0106062E0FD0B6F546
:104CF000803F0CD02068006840F001002168086007
:104D000005E02068006840F001002168086000208C
:104D10007AE700000000014000040140004001402B
:104D200000440140004801400004004000080040E9
:104D3000000C00400018004000E0004000E400408B
:104D40000700010030B504460D46002229462068C0
:104D500001F070FA2F49206888420FD02E49206850
:104D600088420BD02D492068884207D02C49206802
:104D7000884203D02B492068884201D1012000E0FD
:104D8000002090B100BF2068006A41F21111084074
:104D900050B92068006A8910084028B92068406C22
:104DA00020F400402168486400BF00BF2068006A0A
:104DB00041F21111084050B92068006A891008407A
:104DC00028B92068006820F001002168086000BF51
:104DD0001DB9012084F83E001AE0042D03D1012101
:104DE0003F20015514E0082D03D101214020015539
:104DF0000EE00C2D03D101214120015508E0102DBA
:104E000003D101214220015502E001214320015537
:104E1000002030BD0000014000040140004001407E
:104E2000004401400048014010B504460349206891
:104E3000884201D1FDF70EF910BD000000040140C9
:104E40007047014600BF91F88400012801D102207B
:104E50007047012081F8840000BF2420C1F8880039
:104E6000086802680868006820F001000B68186094
:104E700022F0005200204866086802602020C1F835
:104E8000880000BF002081F8840000BF00BFDFE77A
:104E90007047704770B504460D4600BF94F8840013
:104EA000012801D1022070BD012084F8840000BFD8
:104EB0002420C4F88800206806682068006820F074
:104EC0000100216808602068806820F06060284345
:104ED00021688860204601F0BBFB20680660202026
:104EE000C4F8880000BF002084F8840000BF00BF21
:104EF000D9E770B504460D4600BF94F88400012838
:104F000001D1022070BD012084F8840000BF24205C
:104F1000C4F88800206806682068006820F0010056
:104F2000216808602068806820F06040284321687C
:104F30008860204601F08CFB206806602020C4F8C1
:104F4000880000BF002084F8840000BF00BFD9E7BC
:104F500070477047704700002DE9F047044620680D
:104F6000C569206806682068876840F60F0005EA72
:104F70000009B9F1000F0FD105F0200060B106F073
:104F8000200010B907F0805030B1606F10B120469A
:104F9000616F8847BDE8F087B9F1000F7ED0F8480F
:104FA000384018B9F74830400028F7D005F0010024
:104FB00058B106F4807040B1012021680862D4F82D
:104FC000900040F00100C4F8900005F0020058B1D4
:104FD00007F0010040B1022021680862D4F8900077
:104FE00040F00400C4F8900005F0040058B107F048
:104FF000010040B1042021680862D4F8900040F01C
:105000000200C4F8900005F0080070B106F020001E
:1050100010B9DB48384040B1082021680862D4F854
:10502000900040F00800C4F8900005F4006060B102
:1050300006F0806048B14FF4006021680862D4F83F
:10504000900040F02000C4F89000D4F890000028B0
:1050500052D005F0200050B106F0200010B907F042
:10506000805020B1606F10B12046616F8847D4F83E
:1050700090A02068806800F04000402802D00AF02C
:10508000280070B3204601F00BFC2068806800F017
:105090004000402826D100BF00BF00E02DE021687D
:1050A000083151E8001F21F040002168083141E833
:1050B0000002002AF1D100BFD4F8800068B1B248E4
:1050C000D4F880100865D4F88000FCF7F9FC98B19A
:1050D000D4F88000016D88470EE02046FFF73AFFC4
:1050E0000AE003E02046FFF735FF05E02046FFF722
:1050F00031FF0020C4F890004CE7E06E01287DD11C
:1051000005F01000002879D006F010000028FAD031
:105110001020216808622068806800F04000402864
:105120006DD1D4F880000068984988426BD0D4F8DB
:105130008000006895491831884264D0D4F8800016
:1051400000689249303188425DD0D4F88000006810
:105150008E494831884256D0D4F8800000688B4987
:10516000603188424FD0D4F8800000688749783198
:10517000884248D0D4F88000006884499031884241
:1051800041D0D4F8800000688049A83188423AD0E4
:10519000D4F8800000687E49884234D0D4F880007A
:1051A00000687B49183188422DD0D4F8800000680F
:1051B00077493031884226D0D4F88000006874499D
:1051C000483188421FD0D4F88000006870496031AF
:1051D000884218D0D4F8800000686D497831884240
:1051E00011D0D4F8800000686949903188420AD013
:1051F000D4F8800000686649A83102E0CAE07BE08C
:1052000001E0884204D1D4F880000068406803E0DF
:10521000D4F88000006840681FFA80F8B8F1000FE9
:1052200058D0B4F85C00404554DDA4F85E80D4F852
:105230008000C069B0F5807F40D000BF00BF21680A
:1052400051E8001F21F48070226842E80001002923
:10525000F5D100BF00BF00BF2168083151E8001F31
:1052600021F001002168083141E80002002AF3D151
:1052700000BF00BF00BF2168083151E8001F21F0C6
:1052800040002168083141E80002002AF3D100BF44
:105290002020C4F88C000020E06600BF00BF216819
:1052A00051E8001F21F01000226842E800010029A7
:1052B000F5D100BFD4F88000FCF794F902202067F4
:1052C000B4F85C00B4F85E20801A81B22046FFF783
:1052D000DFFD10E0B4F85C0040450CD1D4F880004C
:1052E000C069B0F5807F06D102202067B4F85C1059
:1052F0002046FFF7CDFD4DE634F85C0F6188401A7B
:105300001FFA80F860885C3CC8B3B8F1000F36D053
:1053100000BF00BF216851E8001F21F4907022688F
:1053200042E800010029F5D100BF00BF00BF21689D
:10533000083151E8001F124AD24301EA02002168F5
:10534000083141E80002002AF1D100BF2020C4F852
:105350008C000020E066606700BF00BF216851E854
:10536000001F21F01000226842E800010029F5D159
:1053700000BF0220206741462046FFF789FD09E66D
:1053800001000010200100048B680008100002409A
:105390001004024005F4801050B107F4800038B1C9
:1053A0004FF48010216808622046FFF7D2FDF1E536
:1053B00005F0800058B106F0800010B907F4000035
:1053C00028B1A06F10B12046A16F8847E2E505F033
:1053D000400030B106F0400018B1204601F096FAC6
:1053E000D8E505F4000030B106F0804018B1204641
:1053F000FFF7AEFDCEE505F0807030B106F000405D
:1054000018B12046FFF745FDC4E500BFC2E510B561
:1054100004460CB9012010BDA06900B100E000BF36
:10542000D4F8880028B9002084F88400204600F0D1
:105430002BF82420C4F888002068006820F00100C0
:1054400021680860A06A10B1204601F02DF92046BD
:1054500001F076FD012800D1DDE72068406820F4E6
:105460009040216848602068806820F02A00216808
:1054700088602068006840F00100216808602046CC
:1054800001F08EF9C7E7000010B5B6B0044614214C
:1054900030A8FAF7E7FFB82102A8FAF7E3FF22499C
:1054A000206888423DD101210020CDE902102090E2
:1054B00002A8FDF7A9F908B1FBF772FF00BF1B486E
:1054C000006840F01000194908600846006800F0C4
:1054D0001000019000BF00BF00BF144810380068E2
:1054E00040F002001149103908600846006800F0D9
:1054F0000200019000BF00BFC02030900220319018
:105500000020329033900720349030A90848FCF7EF
:10551000A3FC002205212520FCF7B2FE2520FCF784
:105520009BFE36B010BD000000100140F044025850
:105530000004025870B504460D461646D4F88C0097
:10554000202821D105B10EB9012070BD0020E066F0
:105550000E492068884211D02068406800F400009D
:1055600060B100BF00BF216851E8001F41F08060BA
:10557000226842E800010029F5D100BF32462946E1
:10558000204601F0F1FFE0E70220DEE7000C0058C2
:1055900038B504461A49206888422AD1194800784B
:1055A000009000231A4669461748006803F086FDFC
:1055B00016480078401C154908709DF80000F02836
:1055C00003D008460078802812DB10480078802835
:1055D00004DA0F48006803F015FF06E00DA002F0A2
:1055E00045FA0948006803F0ABFD00200749087040
:1055F00000BF012203492046FFF79CFF38BD000091
:105600000010014030000024140000243500002464
:10561000280000246461746120746F6F206C6F6EC9
:10562000670D0A002DE9F84F04460E4617469946C5
:10563000D4F88800202854D106B117B90120BDE85C
:10564000F88F00205434E06321206063FCF7FCFCF9
:10565000824627806780543CA068B0F5805F04D103
:10566000206910B90025B04602E035464FF0000829
:1056700020E05346002280212046CDF8009002F021
:1056800021F820B12020C4F888000320D7E745B9CD
:10569000B8F80000C0F308002168886208F1020829
:1056A00003E02878216888626D1CB4F85600401E1B
:1056B000A4F85600B4F856000028DAD15346002268
:1056C00040212046CDF8009001F0FCFF20B12020C1
:1056D000C4F888000320B2E72020C4F88800002026
:1056E000ADE70220ABE7704700BFFEE71FB5002023
:1056F0000090019002900390FCF760FD01208DF86E
:10570000000000208DF8010001901F208DF8080096
:1057100087208DF8090000208DF80A008DF80B0015
:1057200001208DF80C008DF80D0000208DF80E0082
:105730008DF80F006846FCF713FD0420FCF754FDBC
:105740001FBD000010B5294803F03FFD284908603F
:10575000284A0021012003F0EFFD27490860274A6D
:105760000021012003F0E8FD25490860254A0021B9
:10577000012003F0E1FD24490860244B00220121AF
:10578000234803F00DFF23490860234A01218020AC
:1057900003F046FC21490860214A0021214803F01A
:1057A0005FFE21490860214A0021214803F058FE8C
:1057B00020490860204A0021204803F051FE20497A
:1057C0000860204A0021204803F04AFE1F49086073
:1057D0001F4A00211F4803F043FE1F4908601F486D
:1057E00003F075FB1E49086010BD0000B0C2000840
:1057F0001C000024C0C2000820000024D0C2000801
:1058000024000024E0C2000828000024A0C20008F0
:105810009D1300081800002488C20008140000240A
:10582000D4C100082D5F000800000024F8C1000862
:10583000CD130008040000241CC2000887090008DA
:105840000800002440C20008817700080C000024F2
:1058500064C20008F55B000810000024F0C20008D4
:105860002C00002408B500BF0D48006840F001007E
:105870000B4908600846006800F00100009000BF76
:1058800000BF00BF0846006840F0020008600846FC
:10589000006800F00200009000BF00BF08BD0000DB
:1058A000E044025800B59BB0002017901890199062
:1058B0001A901490159016901C210DA8FAF7D2FD9D
:1058C00034216846FAF7CEFD434844490860032076
:1058D00048600021414881604FF47A41C160002155
:1058E0000161416180218161FEF7A0FD08B1FBF7F4
:1058F00057FD4FF48050179017A93848FEF7DAFE8D
:1059000008B1FBF74DFD3548FFF725F908B1FBF766
:1059100047FD002014901590169014A92F48FEF70B
:1059200013FD08B1FBF73CFD60200D9000200E90A8
:105930000F90109011901290139000220DA92748FB
:10594000FFF751F808B1FBF72BFD04220DA92348FE
:10595000FFF749F808B1FBF723FD08220DA91F48FE
:10596000FFF741F808B1FBF71BFD0C220DA91B48FE
:10597000FFF739F808B1FBF713FD00200090019004
:105980000290039004904FF4005005900020069080
:1059900008904FF00070099000200A900C90694622
:1059A0000E48FEF76DFC08B1FBF7FAFC00210B482E
:1059B000FFF70AF904210948FFF706F9082107480B
:1059C000FFF702F90C210548FFF7FEF80348FEF740
:1059D000D9FF1BB000BD0000000001401C010024E5
:1059E00030B59BB004460D460020179018901990D2
:1059F0001A901490159016901C210DA8FAF732FDFC
:105A000034216846FAF72EFD39483A4908600846BD
:105A1000446000218160C560016141618021816134
:105A2000FEF704FD08B1FBF7BBFC4FF48050179064
:105A300017A93048FEF73EFE08B1FBF7B1FC2D4830
:105A4000FFF789F808B1FBF7ABFC00201490159024
:105A5000169014A92748FEF777FC08B1FBF7A0FCC5
:105A600060200D9000200E900F90109011901290D9
:105A7000139000220DA91F48FEF7B5FF08B1FBF7F0
:105A80008FFC04220DA91B48FEF7ADFF08B1FBF700
:105A900087FC08220DA91748FEF7A5FF08B1FBF700
:105AA0007FFC0C220DA91348FEF79DFF08B1FBF700
:105AB00077FC0020009001900290039004904FF436
:105AC000005005900020069008904FF0007009905B
:105AD00000200A900C9069460648FEF7D1FB08B1F9
